:020000040000FA
:100000004429A800F839A000A00CA00C200C8407FB
:10001000CF20A80000053F292808031C0301000683
:10002000280580063F29A501A400B3172730A300A7
:10003000103026200330A300E8302620A3016430CE
:100040002620A3010A30262024083128A2002508F2
:10005000A1002408A00023212008031DB313B31B13
:100060000800303EA2008316851083120930A300D9
:1000700003104520A20CA30B39280314452001309E
:10008000A100F430ED2003143F2903184A28000092
:1000900085144C2885104C280030A1005B30ED28D9
:1000A0006400602003185028B0200830A300B1205D
:1000B0006020A20C5B28A30B5728B120220808005F
:1000C000360884003408841780048413000533192B
:1000D0003406FF3E0800A501A400B3172730A30093
:1000E00010307E200330A300E8307E20A30164306E
:1000F0007E20A3010A307E2024088928A20025083A
:10010000A1002408A00023212008031DB313B31B62
:100110000800303EA600360884000930A70003100E
:100120009620A60CA70B9028031496288413B31DC1
:10013000A52800083404331D340680008417000805
:100140003404031C34068000B12800083404031C66
:100150003406331934068000841734098005B12829
:10016000331700308A00330D0639A000C320A100E8
:1001700000308A00200AC320331FED283313A0006B
:1001800002300C21ED28C73E03188A0A8200013490
:10019000713403341134003438340C34D534003025
:1001A0008A0028080739D73E03188A0A82000134DA
:1001B0000234043408341034203440348034A30131
:1001C000A200FF30A207031CA307031C3F29033032
:1001D000A100DF30ED20E128A101E83EA000A10947
:1001E000FC30031CF628A0070318F328A0076400BE
:1001F000A10FF3282018FC28A01C002900000029CA
:1002000008000310A00DA10DFF3E031801292008CE
:100210003F290310A10CA00CFF3E03180929200858
:100220003F29A2000530A80023082102031D1A2936
:100230002208200204300318013003190230280577
:10024000031DFF303F29A501A4011030A600210D98
:10025000A40DA50D2208A4022308031C230FA50248
:10026000031839292208A40723080318230FA50718
:100270000310A00DA10DA60B272920083F298313E9
:1002800003138312640008008316861507309C0050
:100290008113831286118316861183120611831629
:1002A0000611831206168316061283120511831691
:1002B0000511831285118316851183120330A30063
:1002C000E8308A01E0208A1136248A1128244D3032
:1002D0008A01322041308A01322058308A0132208E
:1002E00033308A01322031308A01322038308A019D
:1002F000322035308A01322035308A0132202030D8
:100300008A01322049308A0132204E308A0132205F
:1003100054308A01322045308A01322052308A011D
:10032000322046308A01322041308A013220433067
:100330008A01322045308A0132208A112F2455301B
:100340008A0132204E308A01322049308A0132201F
:1003500054308A01322020308A01322049308A010B
:10036000322044308A0132203A308A01322005306E
:100370008A0113200130A300F4308A01E020F20149
:100380008A1105248A1136240230E0000230E1008F
:100390000230E2000230E3000130F100640004307A
:1003A00071028A110318DA298A110922F10A8A11C5
:1003B000031DCE298A11312364008A11051AE2290E
:1003C0008A11002A0630B6000130B4000630B300AE
:1003D0008A0150204C3C8A11031DE8298A015020D3
:1003E000413C8A11031DE8298A015020303C8A11C2
:1003F000031DE8298A015020353C8A11031DE82994
:1004000032308A01DF208A1109228A1131238A01C0
:10041000DC29F3016400043073028A110318302BC5
:1004200064007308003C8A11031D1C2A06128316FF
:10043000061283128A113E2A64007308013C8A1155
:10044000031D282A86128316861283128A113E2AD9
:1004500064007308023C8A11031D342A06138316B4
:10046000061383128A113E2A64007308033C8A1122
:10047000031D3E2A8613831686138312EC01ED01B9
:100480008316861583120130F40064001130740263
:100490008A1103185E2A06158316061103108312AB
:1004A000EC0DED0D86196C14861D6C10061183166B
:1004B00006118312F40A8A11031D452A06168316B3
:1004C0000612831286168316861283120617831667
:1004D0000613831286178316861364008A1183120B
:1004E0006C1C832A7308643E84000008EE0001300F
:1004F0006E07EE00EF01EF0D7308643E84006E0896
:1005000080008A11902A7308643E84008001703054
:1005100084007308003E8A01012003108A010C2028
:100520007308643E84000008EE0064006E08143C0A
:100530008A11031DA82A7308643E8400800170306C
:1005400084007308003E8A01012003148A010C20F4
:1005500064008A11ED1BB32A7308683E84002B30B7
:1005600080008A11B82A7308683E84002D3080000C
:10057000F0306C05EE007F306D05EF000310730D59
:10058000583E84006E088000840A6F0880000310C3
:10059000730D583E84000008EE00840A0008EF0046
:1005A0006E08A0006F08A10004308A010C21EE0043
:1005B0002108EF000310730D583E84006E08800080
:1005C000840A6F0880007308683E84000008EE000B
:1005D00064006E082D3C8A11031D082B0310730D57
:1005E000583E84000008EE00840A0008EF006E0800
:1005F000003CEE006F08031C013E083CEF000310B6
:10060000730D583E84006E088000840A6F088000D5
:10061000703084007308003E8A0101200030031D01
:100620000130EE00EF010130A000A1016F08A3002E
:100630006E088A0111218A11031D2C2B0310730DE2
:10064000583E840005308000840A0D308000730815
:10065000683E84002D308000F30A8A11031D0A2AA7
:10066000080085158316851183128A1128245430B9
:100670008A01322031308A0132203A308A01322018
:1006800068088A0132205908A50058088A011420F8
:1006900020308A01322054308A01322032308A01DF
:1006A00032203A308A01322069088A0132205B0800
:1006B000A5005A088A01142020308A0132202030F7
:1006C0008A01322020308A01322020308A013220F3
:1006D00020308A01322020308A0132208A112F24D2
:1006E00054308A01322033308A0132203A308A0174
:1006F00032206A088A0132205D08A5005C088A0160
:10070000142020308A01322054308A0132203430C3
:100710008A0132203A308A0132206B088A01322065
:100720005F08A5005E088A01142020308A0132206B
:1007300020308A01322020308A01322020308A0184
:10074000322020308A01322020308A0132200530C8
:10075000B6000430B4000630B30068088A018A206D
:100760005908A50058088A016C203A308A018A206D
:1007700069088A018A205B08A5005A088A016C2052
:100780000530B6000430B4000630B3003A308A01B8
:100790008A206A088A018A205D08A5005C088A010F
:1007A0006C203A308A018A206B088A018A205F080F
:1007B000A5005E088A016C200530B6000430B40044
:1007C0000630B3003A308A018A2005308A016B2056
:1007D0000530B6000430B4000630B3003A308A0168
:1007E0008A2023308A018A2023308A018A202330FC
:1007F0008A018A2023308A018A2023308A018A20B4
:1008000085118316851183120800F20164000430FB
:1008100072028A110318272C0310720D403E8400C7
:100820008001840A80010310720D483E840080011B
:10083000840A8001703084007208003E8A01012021
:1008400003108A010C20F20A8A11031D062C0800ED
:10085000FE308A01322080308A0132200800FE30CA
:100860008A013220C0308A01322008000130F400B1
:100870006400033074028A1103184B2CFE308A0185
:10088000322001308A01322064308A01DF20F40AEC
:0E0890008A11031D382C080063008A014C2CCD
:02400E006E3F03
:00000001FF
