:020000040000FA
:100000004429A800F839A000A00CA00C200C8407FB
:10001000CF20A80000053F292808031C0301000683
:10002000280580063F29A501A400B3172730A300A7
:10003000103026200330A300E8302620A3016430CE
:100040002620A3010A30262024083128A2002508F2
:10005000A1002408A00023212008031DB313B31B13
:100060000800303EA2008316851083120930A300D9
:1000700003104520A20CA30B39280314452001309E
:10008000A100F430ED2003143F2903184A28000092
:1000900085144C2885104C280030A1005B30ED28D9
:1000A0006400602003185028B0200830A300B1205D
:1000B0006020A20C5B28A30B5728B120220808005F
:1000C000360884003408841780048413000533192B
:1000D0003406FF3E0800A501A400B3172730A30093
:1000E00010307E200330A300E8307E20A30164306E
:1000F0007E20A3010A307E2024088928A20025083A
:10010000A1002408A00023212008031DB313B31B62
:100110000800303EA600360884000930A70003100E
:100120009620A60CA70B9028031496288413B31DC1
:10013000A52800083404331D340680008417000805
:100140003404031C34068000B12800083404031C66
:100150003406331934068000841734098005B12829
:10016000331700308A00330D0639A000C320A100E8
:1001700000308A00200AC320331FED283313A0006B
:1001800002300C21ED28C73E03188A0A8200013490
:10019000713403341134003438340C34D534003025
:1001A0008A0028080739D73E03188A0A82000134DA
:1001B0000234043408341034203440348034A30131
:1001C000A200FF30A207031CA307031C3F29033032
:1001D000A100DF30ED20E128A101E83EA000A10947
:1001E000FC30031CF628A0070318F328A0076400BE
:1001F000A10FF3282018FC28A01C002900000029CA
:1002000008000310A00DA10DFF3E031801292008CE
:100210003F290310A10CA00CFF3E03180929200858
:100220003F29A2000530A80023082102031D1A2936
:100230002208200204300318013003190230280577
:10024000031DFF303F29A501A4011030A600210D98
:10025000A40DA50D2208A4022308031C230FA50248
:10026000031839292208A40723080318230FA50718
:100270000310A00DA10DA60B272920083F298313E9
:100280000313831264000800831686158312073057
:100290009F008316811383128611831686118312A1
:1002A0000611831606118312061683160612831290
:1002B000051183160511831285118316851183128A
:1002C0000330A300E830E020A8239E234D303220E5
:1002D0004130322058303220333032203130322019
:1002E0003830322035303220353032202030322044
:1002F000493032204E3032205430322045303220C6
:1003000052303220463032204130322043303220C9
:1003100045303220A323553032204E303220493030
:1003200032205430322020303220493032204430C4
:1003300032203A303220033013200130A300F43051
:10034000E020F2018023A8230230E0000230E10027
:100350000230E2000230E3000130F10064000430BA
:1003600071020318B629D621F10FAE29E3226400E9
:10037000051ABB29D1290630B6000130B400063079
:10038000B30050204C3C031DC1295020413C031DAB
:10039000C1295020303C031DC1295020333C031D8E
:1003A000C1293230DF20D621E322B729F3016400CE
:1003B000043073020318E22A64007308003C031D32
:1003C000E6290612831606128312032A64007308B4
:1003D000013C031DF0298612831686128312032A1C
:1003E00064007308023C031DFA29061383160613E2
:1003F0008312032A64007308033C031D032A861337
:10040000831686138312EC01ED0183168615831281
:100410000130F4006400113074020318202A06151C
:100420008316061103108312EC0DED0D86196C1462
:10043000861D6C100611831606118312F40F0A2A0A
:1004400006168316061283128616831686128312E8
:100450000617831606138312861783168613640005
:1004600083126C1C432A7308643E84000008EE006B
:1004700001306E07EE00EF01EF0D7308643E84005B
:100480006E0880004E2A7308643E8400800170303C
:1004900084007308003E012003100C207308643EA2
:1004A00084000008EE0064006E08143C031D632AFB
:1004B0007308643E84008001703084007308003E3D
:1004C000012003140C206400ED1B6C2A7308683EA5
:1004D00084002B308000712A7308683E84002D3020
:1004E0008000F0306C05EE007F306D05EF000310EA
:1004F000730D583E84006E088000840A6F088000E7
:100500000310730D583E84000008EE00840A0008B2
:10051000EF006E08A0006F08A10004300C21EE006F
:100520002108EF000310730D583E84006E08800010
:10053000840A6F0880007308683E84000008EE009B
:1005400064006E082D3C031DBF2A0310730D583E36
:1005500084000008EE00840A0008EF006E08003CEA
:10056000EE006F08031C013E083CEF000310730D02
:10057000583E84006E088000840A6F088000703046
:1005800084007308003E01200030031D0130EE009E
:10059000EF010130A000A1016F08A3006E08112136
:1005A000031DE02A0310730D583E840005308000BF
:1005B000840A0D3080007308683E84002D3080006E
:1005C000F30FD729080085158316851183129E2302
:1005D00054303220313032203A3032206808322014
:1005E0005908A500580814202030322054303220F9
:1005F000323032203A303220690832205B08A500C0
:100600005A0814202030322020303220203032206E
:10061000203032202030322020303220A3235430AA
:100620003220333032203A3032206A0832205D08DE
:10063000A5005C08142020303220543032203430A1
:1006400032203A3032206B0832205F08A5005E0865
:100650001420203032202030322020303220203030
:10066000322020303220203032200530B6000430D5
:10067000B4000630B30068088A205908A50058085D
:100680006C203A308A2069088A205B08A5005A0845
:100690006C200530B6000430B4000630B3003A30A8
:1006A0008A206A088A205D08A5005C086C203A3020
:1006B0008A206B088A205F08A5005E086C20053040
:1006C000B6000430B4000630B3003A308A2003305C
:1006D0006B200530B6000430B4000630B3003A3069
:1006E0008A2023308A2023308A2023308A20233016
:1006F0008A2023308A2085118316851183120800F1
:10070000F20164000430720203189D2B0310720D75
:10071000403E84008001840A80010310720D483E2F
:1007200084008001840A8001703084007208003ED9
:10073000012003100C20F20F812B0800FE30322024
:10074000803032200800FE303220C03032200800D5
:100750000130F4006400033074020318B72BFE303C
:100760003220013032206430DF20F40FAA2B080041
:040770006300B82B3F
:02400E006D3F04
:00000001FF
